:1000000053C09AC06CC06BC06AC069C068C067C08A
:1000100066C065C064C063C062C061C060C00902E0
:100020002200010100801909040000010300000002
:100030000921010100012234000705810308000A9B
:100040001201100100000008C016C01600010102D4
:1000500000010C034D006F00750073006500120372
:100060006F0062006400650076002E00610074007D
:100070000403090405010902A1010901A100050900
:1000800019012903150025019503750181029501C8
:100090007505810305010930093109381581257F6E
:1000A000750895038106C0C011241FBECFE5D2E0BC
:1000B000DEBFCDBF10E0A0E6B0E0EAE2F8E002C0AB
:1000C00005900D92A436B107D9F720E0A4E6B0E080
:1000D00001C01D92A23AB207E1F73FD3A4C390CF6B
:1000E000A82FB92F80E090E041E050EA609530E021
:1000F00009C02D9182279795879510F08427952721
:10010000305EC8F36F5FA8F30895EADF8D939D9387
:100110000895A6E088279927AA9569F00197E1F349
:10012000B199FCCFB19BFECF81E09927A6B3019690
:1001300011F0A670D9F70895CF93CFB7CF93C39599
:10014000B19BE9F7B19B0BC0B19B09C0B19B07C044
:10015000B19B05C0B19B03C0B19B01C0D5C00F923C
:10016000DF93C0918500DD27C457DF4F012EB19B7F
:1001700003C0DF910F90E6CF2F930F931F934F9300
:100180002FEF4F6F06B301FB20F95F933F9350E0D1
:100190003BE065C016B30126502951FDC89556B302
:1001A000012701FB25F92F7306B3B1F05027102763
:1001B00011FB26F906B22230F0F000C016B3012779
:1001C00001FB27F90126502906B22430E8F54F77C4
:1001D000206816B30000F6CF50274F7D206206B28C
:1001E000102F000000C006B300265029102711FB75
:1001F00026F906B2E2CF4F7B06B3206400C0DACF07
:1002000001265029167006B269F14E7F2160012F38
:1002100016B328C0002650294D7F06B22260102F49
:1002200029C0012650294B7F06B22460012F2DC022
:1002300016B301265029477F2860000006B22EC061
:100240004F7E06B3206130C0422706B34993002693
:100250005029102706B24FEF11FB20F9297F16B362
:1002600079F2167059F10126502906B2012701FBD7
:1002700021F9237F06B371F2002650293150D0F0C6
:1002800006B2102711FB22F9277E16B351F2012680
:100290005029012701FB06B223F92F7C49F2000007
:1002A00006B3102711FB24F90026502906B22F7936
:1002B00039F270CF10E41ABF002719C03B503195B6
:1002C000C31BD04010E41ABF0881033C09F10B3472
:1002D000F9F0209183001981110F1213EDCF4A819B
:1002E000441F093651F10D3211F0013E29F70093F8
:1002F0008A003F915F914F911F910F912F91DF9154
:100300000F90CAB7C6FD1BCFCF91CFBFCF91189525
:1003100020918A00222369F310918800112379F536
:1003200034307AF130938800209384001091850056
:100330003BE0311B3093850024C0009188000130E0
:10034000F4F40AE54F7049F43091610034FD1AC0AD
:1003500000936100CCE6D0E019C03091770034FD05
:1003600011C000937700C8E7D0E010C0052710E067
:1003700000C021C0052710E0C89508BB14C03AE5AD
:1003800001C032ED032EC0E0D0E032E017B31660BA
:10039000C19A08B317BB56E020E84FEF20FF0527AE
:1003A00008BB279517951C3F28F700004552B0F76A
:1003B00020FF0527279508BB17951C3FB8F6299104
:1003C0003A9561F7097F10918900110F08BBC2505F
:1003D000D04011F01093830010E41ABF026017B3ED
:1003E000197F402F497F54E05A95F1F708BB17BB9E
:1003F00048BB7FCFCF93C62F2091770024FF07C043
:100400003091780028E823272093780003C02AE55C
:10041000209377002C2FFC01A9E7B0E081918D9308
:1004200021501216DCF36C2F89E790E06EDECC5F72
:10043000C0937700CF910895CF93DF938091880088
:10044000835087FDA3C0909184009D3209F09CC029
:10045000883009F099C080918500CCE0D0E0C81BBD
:10046000D109C457DF4F83EC80936C008AE58093F9
:100470006100109265008881807619F0CE01F5D078
:100480007AC09A81109275008981811106C01092FC
:10049000760025E730E082E06AC0853019F4909359
:1004A000890062C0863009F049C08B81813019F41F
:1004B00080E490E01AC0823041F48EE190E09093A5
:1004C00087008093860082E235C08330F1F4911179
:1004D00008C080E790E0909387008093860084E0D6
:1004E00029C0913041F48EE590E09093870080938D
:1004F000860082E11FC09230E1F482E590E09093A3
:100500008700809386008CE015C0813241F480E33F
:1005100090E0909387008093860089E00BC0823240
:1005200041F484E790E0909387008093860084E311
:1005300001C080E090E4909365001DC0883069F0B0
:10054000893019F490938B000FC08A3049F08B30BA
:1005500059F48BE48093780007C02BE830E002C0A8
:1005600025E730E081E003C025E730E080E030930C
:100570008700209386009F81911104C09E81981767
:1005800008F4892F809360001092880080916100A8
:1005900084FF46C0809160008F3F09F441C0C82F9E
:1005A000893008F0C8E08C1B8093600090916C004B
:1005B00088E8892780936C00CC2331F14091860034
:1005C000509187008091650086FF0AC0ADE6B0E0DB
:1005D000FA019C2F84918D9331969150D9F708C0E0
:1005E000DA01EDE6F0E09C2F8D9181939150E1F7D7
:1005F0002FEF2C0F30E02F5F3F4FCA01820F931F68
:1006000090938700809386006C2F8DE690E07DDDCF
:10061000CC5FCC3019F08FEF80936000C093610005
:1006200084E196B3967031F48150D9F71092890025
:1006300010928300C1E08111C0E090916400C9175D
:1006400021F0811133D0C0936400DF91CF910895E0
:1006500085B7836085BF8BB780648BBFE7E7F0E029
:100660008BE481838AE580830895FC018081807614
:100670008032D1F48181813041F488E690E090931A
:1006800087008093860084E00895823041F487E6F5
:1006900090E0909387008093860081E008958A30EF
:1006A00019F483818093670080E00895DF92EF92D0
:1006B000FF920F931F93CF93DF93F89408E010E01D
:1006C000C0E0D0E8DD2EDC0ED1BE23DD7C0184E36A
:1006D000E81689E0F8060CF4CD2DD69501501109E5
:1006E00089F78FEF8C0F81BF0C2F10E00F5F1F4F2A
:1006F00081B790E0081719078CF00BDD84539940FF
:1007000097FF03C09195819591098E159F0514F46B
:10071000C1B77C0181B78F5F81BFEACFC1BF789439
:1007200061B780E090E0DF91CF911F910F91FF9032
:10073000EF90DF906AC086B3807190916600891750
:1007400059F080936600811107C081E090916200AA
:10075000911180E0809362000895C49A80E090E057
:100760004CD08F3F09F081BFB99A84E1E2EBF1EF01
:100770003197F1F700C000008150C1F7B9989EE0B1
:1007800088E10FB6F894A89581BD0FBE91BD60DFDA
:100790007894D0E0C0E01FEF01E0A895CCDF4CDEFC
:1007A000809162008823C9F38091770084FFF5CFA0
:1007B000C23079F0C33091F0C13031F0009369005C
:1007C00010926A00C0E00EC010926900C0936A00E7
:1007D00009C01093690010926A0004C01092690069
:1007E00010936A00DF3F19F4CF5FD0E001C0DF5FF4
:1007F00064E088E690E0FEDDD0CFE199FECF9FBBBC
:100800008EBBE09A99278DB30895262FE199FECFEC
:100810001CBA9FBB8EBB2DBB0FB6F894E29AE19A2F
:0A0820000FBE01960895F894FFCF73
:04082A00FF5A010070
:00000001FF
